{
  "_format": "hh-sol-artifact-1",
  "contractName": "SolarexSwapFactory",
  "sourceName": "contracts/SolarexSwapFactory.sol",
  "abi": [
    {
      "inputs": [
        {
          "internalType": "address",
          "name": "_feeToSetter",
          "type": "address"
        }
      ],
      "payable": false,
      "stateMutability": "nonpayable",
      "type": "constructor"
    },
    {
      "anonymous": false,
      "inputs": [
        {
          "indexed": true,
          "internalType": "address",
          "name": "token0",
          "type": "address"
        },
        {
          "indexed": true,
          "internalType": "address",
          "name": "token1",
          "type": "address"
        },
        {
          "indexed": false,
          "internalType": "address",
          "name": "pair",
          "type": "address"
        },
        {
          "indexed": false,
          "internalType": "uint256",
          "name": "",
          "type": "uint256"
        }
      ],
      "name": "PairCreated",
      "type": "event"
    },
    {
      "constant": true,
      "inputs": [
        {
          "internalType": "uint256",
          "name": "",
          "type": "uint256"
        }
      ],
      "name": "allPairs",
      "outputs": [
        {
          "internalType": "address",
          "name": "",
          "type": "address"
        }
      ],
      "payable": false,
      "stateMutability": "view",
      "type": "function"
    },
    {
      "constant": true,
      "inputs": [],
      "name": "allPairsLength",
      "outputs": [
        {
          "internalType": "uint256",
          "name": "",
          "type": "uint256"
        }
      ],
      "payable": false,
      "stateMutability": "view",
      "type": "function"
    },
    {
      "constant": false,
      "inputs": [
        {
          "internalType": "address",
          "name": "tokenA",
          "type": "address"
        },
        {
          "internalType": "address",
          "name": "tokenB",
          "type": "address"
        }
      ],
      "name": "createPair",
      "outputs": [
        {
          "internalType": "address",
          "name": "pair",
          "type": "address"
        }
      ],
      "payable": false,
      "stateMutability": "nonpayable",
      "type": "function"
    },
    {
      "constant": true,
      "inputs": [],
      "name": "defaultSwapFee",
      "outputs": [
        {
          "internalType": "uint32",
          "name": "",
          "type": "uint32"
        }
      ],
      "payable": false,
      "stateMutability": "view",
      "type": "function"
    },
    {
      "constant": true,
      "inputs": [],
      "name": "feeTo",
      "outputs": [
        {
          "internalType": "address",
          "name": "",
          "type": "address"
        }
      ],
      "payable": false,
      "stateMutability": "view",
      "type": "function"
    },
    {
      "constant": true,
      "inputs": [],
      "name": "feeToSetter",
      "outputs": [
        {
          "internalType": "address",
          "name": "",
          "type": "address"
        }
      ],
      "payable": false,
      "stateMutability": "view",
      "type": "function"
    },
    {
      "constant": true,
      "inputs": [
        {
          "internalType": "address",
          "name": "",
          "type": "address"
        },
        {
          "internalType": "address",
          "name": "",
          "type": "address"
        }
      ],
      "name": "getPair",
      "outputs": [
        {
          "internalType": "address",
          "name": "",
          "type": "address"
        }
      ],
      "payable": false,
      "stateMutability": "view",
      "type": "function"
    },
    {
      "constant": true,
      "inputs": [],
      "name": "protocolFeeFactor",
      "outputs": [
        {
          "internalType": "uint8",
          "name": "",
          "type": "uint8"
        }
      ],
      "payable": false,
      "stateMutability": "view",
      "type": "function"
    },
    {
      "constant": false,
      "inputs": [
        {
          "internalType": "uint32",
          "name": "_defaultSwapFee",
          "type": "uint32"
        }
      ],
      "name": "setDefaultSwapFee",
      "outputs": [],
      "payable": false,
      "stateMutability": "nonpayable",
      "type": "function"
    },
    {
      "constant": false,
      "inputs": [
        {
          "internalType": "address",
          "name": "_feeTo",
          "type": "address"
        }
      ],
      "name": "setFeeTo",
      "outputs": [],
      "payable": false,
      "stateMutability": "nonpayable",
      "type": "function"
    },
    {
      "constant": false,
      "inputs": [
        {
          "internalType": "address",
          "name": "_feeToSetter",
          "type": "address"
        }
      ],
      "name": "setFeeToSetter",
      "outputs": [],
      "payable": false,
      "stateMutability": "nonpayable",
      "type": "function"
    },
    {
      "constant": false,
      "inputs": [
        {
          "internalType": "address",
          "name": "_pair",
          "type": "address"
        },
        {
          "internalType": "uint32",
          "name": "_pairSwapFee",
          "type": "uint32"
        }
      ],
      "name": "setPairSwapFee",
      "outputs": [],
      "payable": false,
      "stateMutability": "nonpayable",
      "type": "function"
    },
    {
      "constant": false,
      "inputs": [
        {
          "internalType": "uint8",
          "name": "_protocolFeeFactor",
          "type": "uint8"
        }
      ],
      "name": "setProtocolFeeFactor",
      "outputs": [],
      "payable": false,
      "stateMutability": "nonpayable",
      "type": "function"
    }
  ],
  "bytecode": "0x60806040526001805463ffffffff60a01b191661017760a31b1760ff60c01b1916600560c01b17905534801561003457600080fd5b506040516151163803806151168339818101604052602081101561005757600080fd5b5051600180546001600160a01b0319166001600160a01b0390921691909117905561508f806100876000396000f3fe608060405234801561001057600080fd5b50600436106100df5760003560e01c8063574f2ba31161008c578063c9c6539611610066578063c9c653961461022a578063d403847414610265578063e6a4390514610285578063f46901ed146102c0576100df565b8063574f2ba3146101ba57806397aef882146101d4578063a2e74af6146101f7576100df565b806311e3bdde116100bd57806311e3bdde1461013e5780631e3dd18b1461015c5780632395798b14610179576100df565b8063017e7e58146100e457806303df739614610115578063094b741514610136575b600080fd5b6100ec6102f3565b6040805173ffffffffffffffffffffffffffffffffffffffff9092168252519081900360200190f35b61011d61030f565b6040805163ffffffff9092168252519081900360200190f35b6100ec610333565b61014661034f565b6040805160ff9092168252519081900360200190f35b6100ec6004803603602081101561017257600080fd5b5035610374565b6101b86004803603604081101561018f57600080fd5b50803573ffffffffffffffffffffffffffffffffffffffff16906020013563ffffffff166103a8565b005b6101c26104bf565b60408051918252519081900360200190f35b6101b8600480360360208110156101ea57600080fd5b503563ffffffff166104c5565b6101b86004803603602081101561020d57600080fd5b503573ffffffffffffffffffffffffffffffffffffffff1661058c565b6100ec6004803603604081101561024057600080fd5b5073ffffffffffffffffffffffffffffffffffffffff81358116916020013516610659565b6101b86004803603602081101561027b57600080fd5b503560ff16610aac565b6100ec6004803603604081101561029b57600080fd5b5073ffffffffffffffffffffffffffffffffffffffff81358116916020013516610b6e565b6101b8600480360360208110156102d657600080fd5b503573ffffffffffffffffffffffffffffffffffffffff16610ba1565b60005473ffffffffffffffffffffffffffffffffffffffff1681565b60015474010000000000000000000000000000000000000000900463ffffffff1681565b60015473ffffffffffffffffffffffffffffffffffffffff1681565b6001547801000000000000000000000000000000000000000000000000900460ff1681565b6003818154811061038157fe5b60009182526020909120015473ffffffffffffffffffffffffffffffffffffffff16905081565b620186a08163ffffffff161115806103c5575063ffffffff818116145b61043057604080517f08c379a000000000000000000000000000000000000000000000000000000000815260206004820152600160248201527f5600000000000000000000000000000000000000000000000000000000000000604482015290519081900360640190fd5b604080517f60b92cb000000000000000000000000000000000000000000000000000000000815263ffffffff83166004820152905173ffffffffffffffffffffffffffffffffffffffff8416916360b92cb091602480830192600092919082900301818387803b1580156104a357600080fd5b505af11580156104b7573d6000803e3d6000fd5b505050505050565b60035490565b620186a08163ffffffff16111561053d57604080517f08c379a000000000000000000000000000000000000000000000000000000000815260206004820152600160248201527f5600000000000000000000000000000000000000000000000000000000000000604482015290519081900360640190fd5b6001805463ffffffff90921674010000000000000000000000000000000000000000027fffffffffffffffff00000000ffffffffffffffffffffffffffffffffffffffff909216919091179055565b60015473ffffffffffffffffffffffffffffffffffffffff16331461061257604080517f08c379a000000000000000000000000000000000000000000000000000000000815260206004820152600160248201527f4600000000000000000000000000000000000000000000000000000000000000604482015290519081900360640190fd5b600180547fffffffffffffffffffffffff00000000000000000000000000000000000000001673ffffffffffffffffffffffffffffffffffffffff92909216919091179055565b60008173ffffffffffffffffffffffffffffffffffffffff168373ffffffffffffffffffffffffffffffffffffffff1614156106f657604080517f08c379a000000000000000000000000000000000000000000000000000000000815260206004820152600160248201527f4400000000000000000000000000000000000000000000000000000000000000604482015290519081900360640190fd5b6000808373ffffffffffffffffffffffffffffffffffffffff168573ffffffffffffffffffffffffffffffffffffffff1610610733578385610736565b84845b909250905073ffffffffffffffffffffffffffffffffffffffff82166107bd57604080517f08c379a000000000000000000000000000000000000000000000000000000000815260206004820152600160248201527f5a00000000000000000000000000000000000000000000000000000000000000604482015290519081900360640190fd5b73ffffffffffffffffffffffffffffffffffffffff82811660009081526002602090815260408083208585168452909152902054161561085e57604080517f08c379a000000000000000000000000000000000000000000000000000000000815260206004820152600160248201527f5200000000000000000000000000000000000000000000000000000000000000604482015290519081900360640190fd5b60606040518060200161087090610c6e565b6020820181038252601f19601f82011660405250905060008383604051602001808373ffffffffffffffffffffffffffffffffffffffff1673ffffffffffffffffffffffffffffffffffffffff1660601b81526014018273ffffffffffffffffffffffffffffffffffffffff1673ffffffffffffffffffffffffffffffffffffffff1660601b815260140192505050604051602081830303815290604052805190602001209050808251602084016000f5604080517f485cc95500000000000000000000000000000000000000000000000000000000815273ffffffffffffffffffffffffffffffffffffffff8781166004830152868116602483015291519297509087169163485cc9559160448082019260009290919082900301818387803b15801561099d57600080fd5b505af11580156109b1573d6000803e3d6000fd5b5050505073ffffffffffffffffffffffffffffffffffffffff84811660008181526002602081815260408084208987168086529083528185208054978d167fffffffffffffffffffffffff000000000000000000000000000000000000000098891681179091559383528185208686528352818520805488168517905560038054600181018255958190527fc2575a0e9e593c00f959f8c92f12db2869c3395a3b0502d05e2516446f71f85b90950180549097168417909655925483519283529082015281517f0d3648bd0f6ba80134a33ba9275ac585d9d315f0ad8355cddefde31afa28d0e9929181900390910190a35050505092915050565b60018160ff1611610b1e57604080517f08c379a000000000000000000000000000000000000000000000000000000000815260206004820152600160248201527f5600000000000000000000000000000000000000000000000000000000000000604482015290519081900360640190fd5b6001805460ff9092167801000000000000000000000000000000000000000000000000027fffffffffffffff00ffffffffffffffffffffffffffffffffffffffffffffffff909216919091179055565b600260209081526000928352604080842090915290825290205473ffffffffffffffffffffffffffffffffffffffff1681565b60015473ffffffffffffffffffffffffffffffffffffffff163314610c2757604080517f08c379a000000000000000000000000000000000000000000000000000000000815260206004820152600160248201527f4600000000000000000000000000000000000000000000000000000000000000604482015290519081900360640190fd5b600080547fffffffffffffffffffffffff00000000000000000000000000000000000000001673ffffffffffffffffffffffffffffffffffffffff92909216919091179055565b6143df80610c7c8339019056fe6080604052600e805460ff60201b1963ffffffff1990911663ffffffff171664010000000017905534801561003357600080fd5b50604080517f8b73c3c69bb8fe3d512ecc4cf759cc79239f7b179b0ffacaa9a75d522b39400f6020808301919091527f0ca3a76575c83ea9a9d7a361c92f0f2e194c9d8dede9d62f88f2d3cb870b2814828401527fc89efdaa54c0f20c7adf612882df0950f5a951637e0307cdcb4c672f298b8bc6606083015261014460808301523060a0808401919091528351808403909101815260c09092019092528051910120600555600780546001600160a01b031916331790556142e5806100fa6000396000f3fe608060405234801561001057600080fd5b50600436106101e55760003560e01c806360b92cb01161010f578063a9059cbb116100a2578063d4cadf6811610071578063d4cadf6814610783578063d505accf1461078b578063dd62ed3e146107e9578063fff6cae914610824576101e5565b8063a9059cbb14610707578063bc25cf7714610740578063c45a015514610773578063d21220a71461077b576101e5565b80637464fc3d116100de5780637464fc3d146106785780637ecebe001461068057806389afcb44146106b357806395d89b41146106ff576101e5565b806360b92cb0146105ba57806365d176f5146105dd5780636a6278421461061257806370a0823114610645576101e5565b806329841edf116101875780634a1c8309116101565780634a1c83091461053857806351415b5d146105715780635909c0d5146105aa5780635a3d5493146105b2576101e5565b806329841edf1461041c5780632c0198cc1461043d578063313ce567146104df578063485cc955146104fd576101e5565b8063095ea7b3116101c3578063095ea7b3146103415780630dfe16811461038e57806318160ddd146103bf57806323b872dd146103d9576101e5565b8063022c0d9f146101ea57806306fdde03146102855780630902f1ac14610302575b600080fd5b6102836004803603608081101561020057600080fd5b81359160208101359173ffffffffffffffffffffffffffffffffffffffff604083013516919081019060808101606082013564010000000081111561024457600080fd5b82018360208201111561025657600080fd5b8035906020019184600183028401116401000000008311171561027857600080fd5b50909250905061082c565b005b61028d610ea7565b6040805160208082528351818301528351919283929083019185019080838360005b838110156102c75781810151838201526020016102af565b50505050905090810190601f1680156102f45780820380516001836020036101000a031916815260200191505b509250505060405180910390f35b61030a610f53565b604080516dffffffffffffffffffffffffffff948516815292909316602083015263ffffffff168183015290519081900360600190f35b61037a6004803603604081101561035757600080fd5b5073ffffffffffffffffffffffffffffffffffffffff8135169060200135610fa8565b604080519115158252519081900360200190f35b610396610fbf565b6040805173ffffffffffffffffffffffffffffffffffffffff9092168252519081900360200190f35b6103c7610fdb565b60408051918252519081900360200190f35b61037a600480360360608110156103ef57600080fd5b5073ffffffffffffffffffffffffffffffffffffffff813581169160208101359091169060400135610fe1565b610424611183565b6040805163ffffffff9092168252519081900360200190f35b610283600480360360a081101561045357600080fd5b73ffffffffffffffffffffffffffffffffffffffff823581169260208101359091169160408201359160608101359181019060a0810160808201356401000000008111156104a057600080fd5b8201836020820111156104b257600080fd5b803590602001918460018302840111640100000000831117156104d457600080fd5b50909250905061118f565b6104e76113ab565b6040805160ff9092168252519081900360200190f35b6102836004803603604081101561051357600080fd5b5073ffffffffffffffffffffffffffffffffffffffff813581169160200135166113b0565b6102836004803603604081101561054e57600080fd5b508035906020013573ffffffffffffffffffffffffffffffffffffffff1661170e565b6102836004803603604081101561058757600080fd5b508035906020013573ffffffffffffffffffffffffffffffffffffffff16611be2565b6103c761209d565b6103c76120a3565b610283600480360360208110156105d057600080fd5b503563ffffffff166120a9565b6105e5612104565b604080516dffffffffffffffffffffffffffff938416815291909216602082015281519081900390910190f35b6103c76004803603602081101561062857600080fd5b503573ffffffffffffffffffffffffffffffffffffffff16612131565b6103c76004803603602081101561065b57600080fd5b503573ffffffffffffffffffffffffffffffffffffffff1661250e565b6103c7612520565b6103c76004803603602081101561069657600080fd5b503573ffffffffffffffffffffffffffffffffffffffff16612526565b6106e6600480360360208110156106c957600080fd5b503573ffffffffffffffffffffffffffffffffffffffff16612538565b6040805192835260208301919091528051918290030190f35b61028d6129fc565b61037a6004803603604081101561071d57600080fd5b5073ffffffffffffffffffffffffffffffffffffffff8135169060200135612a74565b6102836004803603602081101561075657600080fd5b503573ffffffffffffffffffffffffffffffffffffffff16612b3e565b610396612d2a565b610396612d46565b610424612d62565b610283600480360360e08110156107a157600080fd5b5073ffffffffffffffffffffffffffffffffffffffff813581169160208101359091169060408101359060608101359060ff6080820135169060a08101359060c00135612e18565b6103c7600480360360408110156107ff57600080fd5b5073ffffffffffffffffffffffffffffffffffffffff813581169160200135166130e4565b610283613101565b600e54640100000000900460ff1660011461084657600080fd5b600e80547fffffffffffffffffffffffffffffffffffffffffffffffffffffff00ffffffff1690558415158061087b57508315155b6108e657604080517f08c379a000000000000000000000000000000000000000000000000000000000815260206004820152600160248201527f4f00000000000000000000000000000000000000000000000000000000000000604482015290519081900360640190fd5b600a546dffffffffffffffffffffffffffff808216916e010000000000000000000000000000900416818710801561092d5750806dffffffffffffffffffffffffffff1686105b61099857604080517f08c379a000000000000000000000000000000000000000000000000000000000815260206004820152600160248201527f4c00000000000000000000000000000000000000000000000000000000000000604482015290519081900360640190fd5b600854600954600091829173ffffffffffffffffffffffffffffffffffffffff91821691168a156109ce576109ce828a8d6132dd565b89156109df576109df818a8c6132dd565b8615610ac1578873ffffffffffffffffffffffffffffffffffffffff166310d1e85c338d8d8c8c6040518663ffffffff1660e01b8152600401808673ffffffffffffffffffffffffffffffffffffffff1673ffffffffffffffffffffffffffffffffffffffff168152602001858152602001848152602001806020018281038252848482818152602001925080828437600081840152601f19601f8201169050808301925050509650505050505050600060405180830381600087803b158015610aa857600080fd5b505af1158015610abc573d6000803e3d6000fd5b505050505b604080517f70a08231000000000000000000000000000000000000000000000000000000008152306004820152905173ffffffffffffffffffffffffffffffffffffffff8416916370a08231916024808301926020929190829003018186803b158015610b2d57600080fd5b505afa158015610b41573d6000803e3d6000fd5b505050506040513d6020811015610b5757600080fd5b5051604080517f70a08231000000000000000000000000000000000000000000000000000000008152306004820152905191955073ffffffffffffffffffffffffffffffffffffffff8316916370a0823191602480820192602092909190829003018186803b158015610bc957600080fd5b505afa158015610bdd573d6000803e3d6000fd5b505050506040513d6020811015610bf357600080fd5b5051925060009150506dffffffffffffffffffffffffffff85168a90038311610c1d576000610c33565b89856dffffffffffffffffffffffffffff160383035b9050600089856dffffffffffffffffffffffffffff16038311610c57576000610c6d565b89856dffffffffffffffffffffffffffff160383035b905081151580610c7c57508015155b610ce757604080517f08c379a000000000000000000000000000000000000000000000000000000000815260206004820152600160248201527f4900000000000000000000000000000000000000000000000000000000000000604482015290519081900360640190fd5b6000610cf1612d62565b90506000610d2a610d0b8563ffffffff808616906134ba16565b610d1e88620f424063ffffffff6134ba16565b9063ffffffff6134db16565b90506000610d44610d0b8563ffffffff808716906134ba16565b9050610d7e64e8d4a51000610d726dffffffffffffffffffffffffffff8c8116908c1663ffffffff6134ba16565b9063ffffffff6134ba16565b610d8e838363ffffffff6134ba16565b1015610dfb57604080517f08c379a000000000000000000000000000000000000000000000000000000000815260206004820152600160248201527f4b00000000000000000000000000000000000000000000000000000000000000604482015290519081900360640190fd5b505050610e0a848488886134eb565b60408051838152602081018390528082018d9052606081018c9052905173ffffffffffffffffffffffffffffffffffffffff8b169133917fd78ad95fa46c994b6551d0da85fc275fe613ce37657fb8d5e3d130840159d8229181900360800190a35050600e80547fffffffffffffffffffffffffffffffffffffffffffffffffffffff00ffffffff16640100000000179055505050505050505050565b6000805460408051602060026001851615610100027fffffffffffffffffffffffffffffffffffffffffffffffffffffffffffffffff0190941693909304601f81018490048402820184019092528181529291830182828015610f4b5780601f10610f2057610100808354040283529160200191610f4b565b820191906000526020600020905b815481529060010190602001808311610f2e57829003601f168201915b505050505081565b600a546dffffffffffffffffffffffffffff808216926e0100000000000000000000000000008304909116917c0100000000000000000000000000000000000000000000000000000000900463ffffffff1690565b6000610fb5338484613744565b5060015b92915050565b60085473ffffffffffffffffffffffffffffffffffffffff1681565b60025481565b600073ffffffffffffffffffffffffffffffffffffffff8416331461109c5773ffffffffffffffffffffffffffffffffffffffff841660009081526004602090815260408083203384529091529020547fffffffffffffffffffffffffffffffffffffffffffffffffffffffffffffffff811461109a57611068818463ffffffff6134db16565b73ffffffffffffffffffffffffffffffffffffffff861660009081526004602090815260408083203384529091529020555b505b73ffffffffffffffffffffffffffffffffffffffff84166000908152600360205260409020546110d2908363ffffffff6134db16565b73ffffffffffffffffffffffffffffffffffffffff8086166000908152600360205260408082209390935590851681522054611114908363ffffffff6137b316565b73ffffffffffffffffffffffffffffffffffffffff80851660008181526003602090815260409182902094909455805186815290519193928816927fddf252ad1be2c89b69c2b068fc378daa952ba7f163c4a11628f55a4df523b3ef92918290030190a35060015b9392505050565b600e5463ffffffff1681565b428310156111fe57604080517f08c379a000000000000000000000000000000000000000000000000000000000815260206004820152600160248201527f5800000000000000000000000000000000000000000000000000000000000000604482015290519081900360640190fd5b60055473ffffffffffffffffffffffffffffffffffffffff80881660008181526006602090815260409182902080546001810190915582517f6e71edae12b1b97f4d1f60370fef10105fa2faae0126114a169c64845d6126c98184015280840194909452938a1660608401526080830189905260a083019390935260c08083018890528151808403909101815260e0830182528051908401207f190100000000000000000000000000000000000000000000000000000000000061010084015261010283019490945261012280830194909452805180830390940184526101428201808252845194840194909420610162601f8701859004909402830184019091528484529261132c928a92859291889188918291018382808284376000920191909152506137c392505050565b61139757604080517f08c379a000000000000000000000000000000000000000000000000000000000815260206004820152600160248201527f5300000000000000000000000000000000000000000000000000000000000000604482015290519081900360640190fd5b6113a2878787613744565b50505050505050565b601281565b60075473ffffffffffffffffffffffffffffffffffffffff1633146113d457600080fd5b6008805473ffffffffffffffffffffffffffffffffffffffff8085167fffffffffffffffffffffffff00000000000000000000000000000000000000009283161790925560098054928416929091169190911790556000606061143684613a5b565b915091506000606061144785613a5b565b915091508380156114555750815b1561167d57606083826040516020018083805190602001908083835b602083106114ae57805182527fffffffffffffffffffffffffffffffffffffffffffffffffffffffffffffffe09092019160209182019101611471565b6001836020036101000a038019825116818451168082178552505050505050905001807f2f0000000000000000000000000000000000000000000000000000000000000081525060010182805190602001908083835b6020831061154157805182527fffffffffffffffffffffffffffffffffffffffffffffffffffffffffffffffe09092019160209182019101611504565b6001836020036101000a038019825116818451168082178552505050505050905001807f20534c50000000000000000000000000000000000000000000000000000000008152506004019250505060405160208183030381529060405290508060405160200180807f536f6c6172657853776170200000000000000000000000000000000000000000815250600c0182805190602001908083835b6020831061161957805182527fffffffffffffffffffffffffffffffffffffffffffffffffffffffffffffffe090920191602091820191016115dc565b6001836020036101000a03801982511681845116808217855250505050505090500191505060405160208183030381529060405260009080519060200190611662929190614215565b508051611676906001906020840190614215565b5050611706565b60408051808201909152600d8082527f536f6c6178546f6b656e204c500000000000000000000000000000000000000060209092019182526116c191600091614215565b506040805180820190915260038082527f534c50000000000000000000000000000000000000000000000000000000000060209092019182526113a291600191614215565b505050505050565b600e54640100000000900460ff1660011461172857600080fd5b600e80547fffffffffffffffffffffffffffffffffffffffffffffffffffffff00ffffffff169055816117bc57604080517f08c379a000000000000000000000000000000000000000000000000000000000815260206004820152600160248201527f4f00000000000000000000000000000000000000000000000000000000000000604482015290519081900360640190fd5b600a546dffffffffffffffffffffffffffff808216916e01000000000000000000000000000090041681841061185357604080517f08c379a000000000000000000000000000000000000000000000000000000000815260206004820152600160248201527f4c00000000000000000000000000000000000000000000000000000000000000604482015290519081900360640190fd5b60085473ffffffffffffffffffffffffffffffffffffffff166118778185876132dd565b604080517f70a08231000000000000000000000000000000000000000000000000000000008152306004820152905160009173ffffffffffffffffffffffffffffffffffffffff8416916370a0823191602480820192602092909190829003018186803b1580156118e757600080fd5b505afa1580156118fb573d6000803e3d6000fd5b505050506040513d602081101561191157600080fd5b5051600954604080517f70a08231000000000000000000000000000000000000000000000000000000008152306004820152905192935060009273ffffffffffffffffffffffffffffffffffffffff909216916370a0823191602480820192602092909190829003018186803b15801561198a57600080fd5b505afa15801561199e573d6000803e3d6000fd5b505050506040513d60208110156119b457600080fd5b5051905060006dffffffffffffffffffffffffffff851682116119d85760006119ec565b846dffffffffffffffffffffffffffff1682035b905080611a5a57604080517f08c379a000000000000000000000000000000000000000000000000000000000815260206004820152600160248201527f4900000000000000000000000000000000000000000000000000000000000000604482015290519081900360640190fd5b6000611a92611a7f611a6a612d62565b63ffffffff16846134ba90919063ffffffff16565b610d1e85620f424063ffffffff6134ba16565b9050611abe620f4240610d726dffffffffffffffffffffffffffff8a8116908a1663ffffffff6134ba16565b611ace858363ffffffff6134ba16565b1015611b3b57604080517f08c379a000000000000000000000000000000000000000000000000000000000815260206004820152600160248201527f4b00000000000000000000000000000000000000000000000000000000000000604482015290519081900360640190fd5b50611b48838388886134eb565b604080516000808252602082018490528183018b90526060820152905173ffffffffffffffffffffffffffffffffffffffff89169133917fd78ad95fa46c994b6551d0da85fc275fe613ce37657fb8d5e3d130840159d8229181900360800190a35050600e80547fffffffffffffffffffffffffffffffffffffffffffffffffffffff00ffffffff16640100000000179055505050505050565b600e54640100000000900460ff16600114611bfc57600080fd5b600e80547fffffffffffffffffffffffffffffffffffffffffffffffffffffff00ffffffff16905581611c9057604080517f08c379a000000000000000000000000000000000000000000000000000000000815260206004820152600160248201527f4f00000000000000000000000000000000000000000000000000000000000000604482015290519081900360640190fd5b600a546dffffffffffffffffffffffffffff808216916e010000000000000000000000000000900416808410611d2757604080517f08c379a000000000000000000000000000000000000000000000000000000000815260206004820152600160248201527f4c00000000000000000000000000000000000000000000000000000000000000604482015290519081900360640190fd5b60095473ffffffffffffffffffffffffffffffffffffffff16611d4b8185876132dd565b600854604080517f70a08231000000000000000000000000000000000000000000000000000000008152306004820152905160009273ffffffffffffffffffffffffffffffffffffffff16916370a08231916024808301926020929190829003018186803b158015611dbc57600080fd5b505afa158015611dd0573d6000803e3d6000fd5b505050506040513d6020811015611de657600080fd5b5051604080517f70a08231000000000000000000000000000000000000000000000000000000008152306004820152905191925060009173ffffffffffffffffffffffffffffffffffffffff8516916370a08231916024808301926020929190829003018186803b158015611e5a57600080fd5b505afa158015611e6e573d6000803e3d6000fd5b505050506040513d6020811015611e8457600080fd5b5051905060006dffffffffffffffffffffffffffff86168311611ea8576000611ebc565b856dffffffffffffffffffffffffffff1683035b905080611f2a57604080517f08c379a000000000000000000000000000000000000000000000000000000000815260206004820152600160248201527f4900000000000000000000000000000000000000000000000000000000000000604482015290519081900360640190fd5b6000611f4d611f3a611a6a612d62565b610d1e86620f424063ffffffff6134ba16565b9050611f79620f4240610d726dffffffffffffffffffffffffffff8a8116908a1663ffffffff6134ba16565b611f89828563ffffffff6134ba16565b1015611ff657604080517f08c379a000000000000000000000000000000000000000000000000000000000815260206004820152600160248201527f4b00000000000000000000000000000000000000000000000000000000000000604482015290519081900360640190fd5b50612003838388886134eb565b6040805182815260006020820181905281830152606081018a9052905173ffffffffffffffffffffffffffffffffffffffff89169133917fd78ad95fa46c994b6551d0da85fc275fe613ce37657fb8d5e3d130840159d8229181900360800190a35050600e80547fffffffffffffffffffffffffffffffffffffffffffffffffffffff00ffffffff16640100000000179055505050505050565b600b5481565b600c5481565b60075473ffffffffffffffffffffffffffffffffffffffff1633146120cd57600080fd5b600e80547fffffffffffffffffffffffffffffffffffffffffffffffffffffffff000000001663ffffffff92909216919091179055565b600a546dffffffffffffffffffffffffffff808216926e0100000000000000000000000000009092041690565b600e54600090640100000000900460ff1660011461214e57600080fd5b600e80547fffffffffffffffffffffffffffffffffffffffffffffffffffffff00ffffffff169055600a54600854604080517f70a0823100000000000000000000000000000000000000000000000000000000815230600482015290516dffffffffffffffffffffffffffff808516946e0100000000000000000000000000009004169260009273ffffffffffffffffffffffffffffffffffffffff909116916370a0823191602480820192602092909190829003018186803b15801561221457600080fd5b505afa158015612228573d6000803e3d6000fd5b505050506040513d602081101561223e57600080fd5b5051600954604080517f70a08231000000000000000000000000000000000000000000000000000000008152306004820152905192935060009273ffffffffffffffffffffffffffffffffffffffff909216916370a0823191602480820192602092909190829003018186803b1580156122b757600080fd5b505afa1580156122cb573d6000803e3d6000fd5b505050506040513d60208110156122e157600080fd5b505190506000612307836dffffffffffffffffffffffffffff871663ffffffff6134db16565b9050600061232b836dffffffffffffffffffffffffffff871663ffffffff6134db16565b905060006123398787613c7d565b60025490915080612376576123626103e8610d1e61235d878763ffffffff6134ba16565b613ea9565b985061237160006103e8613efb565b6123d3565b6123d06dffffffffffffffffffffffffffff891661239a868463ffffffff6134ba16565b816123a157fe5b046dffffffffffffffffffffffffffff89166123c3868563ffffffff6134ba16565b816123ca57fe5b04613fac565b98505b8861243f57604080517f08c379a000000000000000000000000000000000000000000000000000000000815260206004820152600160248201527f4d00000000000000000000000000000000000000000000000000000000000000604482015290519081900360640190fd5b6124498a8a613efb565b61245586868a8a6134eb565b811561249757600a54612493906dffffffffffffffffffffffffffff808216916e01000000000000000000000000000090041663ffffffff6134ba16565b600d555b6040805185815260208101859052815133927f4c209b5fc8ad50758f13e2e1088ba56a560dff690a1c6fef26394f4c03821c4f928290030190a25050600e80547fffffffffffffffffffffffffffffffffffffffffffffffffffffff00ffffffff1664010000000017905550949695505050505050565b60036020526000908152604090205481565b600d5481565b60066020526000908152604090205481565b600080600e60049054906101000a900460ff1660ff1660011461255a57600080fd5b600e80547fffffffffffffffffffffffffffffffffffffffffffffffffffffff00ffffffff169055600a54600854600954604080517f70a0823100000000000000000000000000000000000000000000000000000000815230600482015290516dffffffffffffffffffffffffffff808616956e0100000000000000000000000000009004169373ffffffffffffffffffffffffffffffffffffffff90811693169160009184916370a08231916024808301926020929190829003018186803b15801561262657600080fd5b505afa15801561263a573d6000803e3d6000fd5b505050506040513d602081101561265057600080fd5b5051604080517f70a08231000000000000000000000000000000000000000000000000000000008152306004820152905191925060009173ffffffffffffffffffffffffffffffffffffffff8516916370a08231916024808301926020929190829003018186803b1580156126c457600080fd5b505afa1580156126d8573d6000803e3d6000fd5b505050506040513d60208110156126ee57600080fd5b50513060009081526003602052604081205491925061270d8888613c7d565b60025490915080612724848763ffffffff6134ba16565b8161272b57fe5b049a508061273f848663ffffffff6134ba16565b8161274657fe5b0499508a1580159061275757508915155b6127c257604080517f08c379a000000000000000000000000000000000000000000000000000000000815260206004820152600160248201527f5500000000000000000000000000000000000000000000000000000000000000604482015290519081900360640190fd5b6127cc3084613fc2565b6127d7878d8d6132dd565b6127e2868d8c6132dd565b604080517f70a08231000000000000000000000000000000000000000000000000000000008152306004820152905173ffffffffffffffffffffffffffffffffffffffff8916916370a08231916024808301926020929190829003018186803b15801561284e57600080fd5b505afa158015612862573d6000803e3d6000fd5b505050506040513d602081101561287857600080fd5b5051604080517f70a08231000000000000000000000000000000000000000000000000000000008152306004820152905191965073ffffffffffffffffffffffffffffffffffffffff8816916370a0823191602480820192602092909190829003018186803b1580156128ea57600080fd5b505afa1580156128fe573d6000803e3d6000fd5b505050506040513d602081101561291457600080fd5b5051935061292485858b8b6134eb565b811561296657600a54612962906dffffffffffffffffffffffffffff808216916e01000000000000000000000000000090041663ffffffff6134ba16565b600d555b604080518c8152602081018c9052815173ffffffffffffffffffffffffffffffffffffffff8f169233927fdccd412f0b1252819cb1fd330b93224ca42612892bb3f4f789976e6d81936496929081900390910190a35050600e80547fffffffffffffffffffffffffffffffffffffffffffffffffffffff00ffffffff166401000000001790555096989597509495505050505050565b60018054604080516020600284861615610100027fffffffffffffffffffffffffffffffffffffffffffffffffffffffffffffffff0190941693909304601f81018490048402820184019092528181529291830182828015610f4b5780601f10610f2057610100808354040283529160200191610f4b565b33600090815260036020526040812054612a94908363ffffffff6134db16565b336000908152600360205260408082209290925573ffffffffffffffffffffffffffffffffffffffff851681522054612ad3908363ffffffff6137b316565b73ffffffffffffffffffffffffffffffffffffffff84166000818152600360209081526040918290209390935580518581529051919233927fddf252ad1be2c89b69c2b068fc378daa952ba7f163c4a11628f55a4df523b3ef9281900390910190a350600192915050565b600e54640100000000900460ff16600114612b5857600080fd5b600e80547fffffffffffffffffffffffffffffffffffffffffffffffffffffff00ffffffff169055600854600954600a54604080517f70a08231000000000000000000000000000000000000000000000000000000008152306004820152905173ffffffffffffffffffffffffffffffffffffffff9485169490931692612c579285928792612c52926dffffffffffffffffffffffffffff169185916370a0823191602480820192602092909190829003018186803b158015612c1a57600080fd5b505afa158015612c2e573d6000803e3d6000fd5b505050506040513d6020811015612c4457600080fd5b50519063ffffffff6134db16565b6132dd565b600a54604080517f70a082310000000000000000000000000000000000000000000000000000000081523060048201529051612cf69284928792612c52926e01000000000000000000000000000090046dffffffffffffffffffffffffffff169173ffffffffffffffffffffffffffffffffffffffff8616916370a0823191602480820192602092909190829003018186803b158015612c1a57600080fd5b5050600e80547fffffffffffffffffffffffffffffffffffffffffffffffffffffff00ffffffff1664010000000017905550565b60075473ffffffffffffffffffffffffffffffffffffffff1681565b60095473ffffffffffffffffffffffffffffffffffffffff1681565b600e5460009063ffffffff908116908114612d7d5780612e12565b600760009054906101000a900473ffffffffffffffffffffffffffffffffffffffff1673ffffffffffffffffffffffffffffffffffffffff166303df73966040518163ffffffff1660e01b815260040160206040518083038186803b158015612de557600080fd5b505afa158015612df9573d6000803e3d6000fd5b505050506040513d6020811015612e0f57600080fd5b50515b91505090565b42841015612e8757604080517f08c379a000000000000000000000000000000000000000000000000000000000815260206004820152600160248201527f5800000000000000000000000000000000000000000000000000000000000000604482015290519081900360640190fd5b60055473ffffffffffffffffffffffffffffffffffffffff80891660008181526006602090815260408083208054600180820190925582517f6e71edae12b1b97f4d1f60370fef10105fa2faae0126114a169c64845d6126c98186015280840196909652958d166060860152608085018c905260a085019590955260c08085018b90528151808603909101815260e0850182528051908301207f19010000000000000000000000000000000000000000000000000000000000006101008601526101028501969096526101228085019690965280518085039096018652610142840180825286519683019690962095839052610162840180825286905260ff89166101828501526101a284018890526101c28401879052519193926101e2808201937fffffffffffffffffffffffffffffffffffffffffffffffffffffffffffffffe081019281900390910190855afa158015612fe8573d6000803e3d6000fd5b50506040517fffffffffffffffffffffffffffffffffffffffffffffffffffffffffffffffe0015191505073ffffffffffffffffffffffffffffffffffffffff81161580159061306357508873ffffffffffffffffffffffffffffffffffffffff168173ffffffffffffffffffffffffffffffffffffffff16145b6130ce57604080517f08c379a000000000000000000000000000000000000000000000000000000000815260206004820152600160248201527f5300000000000000000000000000000000000000000000000000000000000000604482015290519081900360640190fd5b6130d9898989613744565b505050505050505050565b600460209081526000928352604080842090915290825290205481565b600e54640100000000900460ff1660011461311b57600080fd5b600e80547fffffffffffffffffffffffffffffffffffffffffffffffffffffff00ffffffff169055600854604080517f70a0823100000000000000000000000000000000000000000000000000000000815230600482015290516132ac9273ffffffffffffffffffffffffffffffffffffffff16916370a08231916024808301926020929190829003018186803b1580156131b557600080fd5b505afa1580156131c9573d6000803e3d6000fd5b505050506040513d60208110156131df57600080fd5b5051600954604080517f70a08231000000000000000000000000000000000000000000000000000000008152306004820152905173ffffffffffffffffffffffffffffffffffffffff909216916370a0823191602480820192602092909190829003018186803b15801561325257600080fd5b505afa158015613266573d6000803e3d6000fd5b505050506040513d602081101561327c57600080fd5b5051600a546dffffffffffffffffffffffffffff808216916e0100000000000000000000000000009004166134eb565b600e80547fffffffffffffffffffffffffffffffffffffffffffffffffffffff00ffffffff16640100000000179055565b6040805173ffffffffffffffffffffffffffffffffffffffff8481166024830152604480830185905283518084039091018152606490920183526020820180517bffffffffffffffffffffffffffffffffffffffffffffffffffffffff167fa9059cbb00000000000000000000000000000000000000000000000000000000178152925182516000946060949389169392918291908083835b602083106133b357805182527fffffffffffffffffffffffffffffffffffffffffffffffffffffffffffffffe09092019160209182019101613376565b6001836020036101000a0380198251168184511680821785525050505050509050019150506000604051808303816000865af19150503d8060008114613415576040519150601f19603f3d011682016040523d82523d6000602084013e61341a565b606091505b5091509150818015613448575080511580613448575080806020019051602081101561344557600080fd5b50515b6134b357604080517f08c379a000000000000000000000000000000000000000000000000000000000815260206004820152600160248201527f5400000000000000000000000000000000000000000000000000000000000000604482015290519081900360640190fd5b5050505050565b60008215610fb95750808202828282816134d057fe5b0414610fb957600080fd5b80820382811115610fb957600080fd5b6dffffffffffffffffffffffffffff841180159061351757506dffffffffffffffffffffffffffff8311155b61352057600080fd5b600a54429063ffffffff7c0100000000000000000000000000000000000000000000000000000000909104811682039081161580159061356f57506dffffffffffffffffffffffffffff841615155b801561358a57506dffffffffffffffffffffffffffff831615155b1561363a578063ffffffff166135cd856135a386614086565b7bffffffffffffffffffffffffffffffffffffffffffffffffffffffff169063ffffffff6140aa16565b600b80547bffffffffffffffffffffffffffffffffffffffffffffffffffffffff929092169290920201905563ffffffff811661360d846135a387614086565b600c80547bffffffffffffffffffffffffffffffffffffffffffffffffffffffff92909216929092020190555b600a80547fffffffffffffffffffffffffffffffffffff0000000000000000000000000000166dffffffffffffffffffffffffffff888116919091177fffffffff0000000000000000000000000000ffffffffffffffffffffffffffff166e0100000000000000000000000000008883168102919091177bffffffffffffffffffffffffffffffffffffffffffffffffffffffff167c010000000000000000000000000000000000000000000000000000000063ffffffff871602179283905560408051848416815291909304909116602082015281517f1c411e9a96e071241c2f21f7726b17ae89e3cab4c78be50e062b03a9fffbbad1929181900390910190a1505050505050565b73ffffffffffffffffffffffffffffffffffffffff808416600081815260046020908152604080832094871680845294825291829020859055815185815291517f8c5be1e5ebec7d5bd14f71427d1e84f3dd0314c0f7b2291e5b200ac8c7c3b9259281900390910190a3505050565b80820182811015610fb957600080fd5b6000806137d084846140eb565b905073ffffffffffffffffffffffffffffffffffffffff81161580159061382257508473ffffffffffffffffffffffffffffffffffffffff168173ffffffffffffffffffffffffffffffffffffffff16145b1561383157600191505061117c565b600060608673ffffffffffffffffffffffffffffffffffffffff16631626ba7e60e01b87876040516024018083815260200180602001828103825283818151815260200191508051906020019080838360005b8381101561389c578181015183820152602001613884565b50505050905090810190601f1680156138c95780820380516001836020036101000a031916815260200191505b50604080517fffffffffffffffffffffffffffffffffffffffffffffffffffffffffffffffe08184030181529181526020820180517bffffffffffffffffffffffffffffffffffffffffffffffffffffffff167fffffffff000000000000000000000000000000000000000000000000000000009098169790971787525181519196909550859450925090508083835b6020831061399657805182527fffffffffffffffffffffffffffffffffffffffffffffffffffffffffffffffe09092019160209182019101613959565b6001836020036101000a038019825116818451168082178552505050505050905001915050600060405180830381855afa9150503d80600081146139f6576040519150601f19603f3d011682016040523d82523d6000602084013e6139fb565b606091505b5091509150818015613a0e575080516020145b8015613a50575080517f1626ba7e000000000000000000000000000000000000000000000000000000009060208084019190811015613a4c57600080fd5b5051145b979650505050505050565b60408051600481526024810182526020810180517bffffffffffffffffffffffffffffffffffffffffffffffffffffffff167f95d89b4100000000000000000000000000000000000000000000000000000000178152915181516000936060938593859373ffffffffffffffffffffffffffffffffffffffff89169382918083835b60208310613b1a57805182527fffffffffffffffffffffffffffffffffffffffffffffffffffffffffffffffe09092019160209182019101613add565b6001836020036101000a038019825116818451168082178552505050505050905001915050600060405180830381855afa9150503d8060008114613b7a576040519150601f19603f3d011682016040523d82523d6000602084013e613b7f565b606091505b50915091508115613c5f576001818060200190516020811015613ba157600080fd5b8101908080516040519392919084640100000000821115613bc157600080fd5b908301906020820185811115613bd657600080fd5b8251640100000000811182820188101715613bf057600080fd5b82525081516020918201929091019080838360005b83811015613c1d578181015183820152602001613c05565b50505050905090810190601f168015613c4a5780820380516001836020036101000a031916815260200191505b50604052505050809050935093505050613c78565b6000604051806020016040528060008152509350935050505b915091565b600754604080517f017e7e58000000000000000000000000000000000000000000000000000000008152905160009273ffffffffffffffffffffffffffffffffffffffff16918391839163017e7e58916004808301926020929190829003018186803b158015613cec57600080fd5b505afa158015613d00573d6000803e3d6000fd5b505050506040513d6020811015613d1657600080fd5b5051600d5473ffffffffffffffffffffffffffffffffffffffff8216158015955091925090613e94578015613e8f576000613d6d61235d6dffffffffffffffffffffffffffff89811690891663ffffffff6134ba16565b90506000613d7a83613ea9565b905080821115613e8c5760008573ffffffffffffffffffffffffffffffffffffffff166311e3bdde6040518163ffffffff1660e01b815260040160206040518083038186803b158015613dcc57600080fd5b505afa158015613de0573d6000803e3d6000fd5b505050506040513d6020811015613df657600080fd5b505190506000613e1e613e0f858563ffffffff6134db16565b6002549063ffffffff6134ba16565b90506000613e6784613e5b8760ff7fffffffffffffffffffffffffffffffffffffffffffffffffffffffffffffffff88011663ffffffff6134ba16565b9063ffffffff6137b316565b90506000818381613e7457fe5b0490508015613e8757613e878882613efb565b505050505b50505b613ea0565b8015613ea0576000600d555b50505092915050565b60006003821115613eec575080600160028204015b81811015613ee657809150600281828581613ed557fe5b040181613ede57fe5b049050613ebe565b50613ef6565b8115613ef6575060015b919050565b600254613f0e908263ffffffff6137b316565b60025573ffffffffffffffffffffffffffffffffffffffff8216600090815260036020526040902054613f47908263ffffffff6137b316565b73ffffffffffffffffffffffffffffffffffffffff831660008181526003602090815260408083209490945583518581529351929391927fddf252ad1be2c89b69c2b068fc378daa952ba7f163c4a11628f55a4df523b3ef9281900390910190a35050565b6000818310613fbb578161117c565b5090919050565b73ffffffffffffffffffffffffffffffffffffffff8216600090815260036020526040902054613ff8908263ffffffff6134db16565b73ffffffffffffffffffffffffffffffffffffffff8316600090815260036020526040902055600254614031908263ffffffff6134db16565b60025560408051828152905160009173ffffffffffffffffffffffffffffffffffffffff8516917fddf252ad1be2c89b69c2b068fc378daa952ba7f163c4a11628f55a4df523b3ef9181900360200190a35050565b6dffffffffffffffffffffffffffff166e0100000000000000000000000000000290565b60006dffffffffffffffffffffffffffff82167bffffffffffffffffffffffffffffffffffffffffffffffffffffffff8416816140e357fe5b049392505050565b600081516041146140fe57506000610fb9565b60208201516040830151606084015160001a7f7fffffffffffffffffffffffffffffff5d576e7357a4501ddfe92f46681b20a08211156141445760009350505050610fb9565b8060ff16601b1415801561415c57508060ff16601c14155b1561416d5760009350505050610fb9565b6040805160008152602080820180845289905260ff8416828401526060820186905260808201859052915160019260a08084019391927fffffffffffffffffffffffffffffffffffffffffffffffffffffffffffffffe081019281900390910190855afa1580156141e2573d6000803e3d6000fd5b50506040517fffffffffffffffffffffffffffffffffffffffffffffffffffffffffffffffe00151979650505050505050565b828054600181600116156101000203166002900490600052602060002090601f016020900481019282601f1061425657805160ff1916838001178555614283565b82800160010185558215614283579182015b82811115614283578251825591602001919060010190614268565b5061428f929150614293565b5090565b6142ad91905b8082111561428f5760008155600101614299565b9056fea265627a7a72315820ebe5766ae5c20b4d556aeb8a1c4ba34190dcee113323dba2f98e7e66b15c9bbb64736f6c63430005110032a265627a7a7231582027be12a0ff52a23b3ee781ebf84f5bd828224f9b2813014de3d1ce9dfe2b53ca64736f6c63430005110032",
  "linkReferences": {},
  "deployedLinkReferences": {}
}